:020000040800F2
:1000000070070020CD0100083D28000835280008B1
:1000100039280008190B0008B52800080000000066
:10002000000000000000000000000000452800085B
:100030001D0B0008000000004128000849280008A6
:10004000E7010008E7010008E7010008E7010008F0
:10005000E7010008E7010008E7010008E7010008E0
:10006000E7010008290B0008E7010008E701000884
:10007000E7010008E7010008E7010008E7010008C0
:10008000E7010008E7010008E7010008E7010008B0
:10009000E7010008E7010008E7010008310B00084C
:1000A000E7010008E7010008E7010008E701000890
:1000B0009D280008A928000800000000E7010008AA
:1000C000E70100080000000000000000E701000850
:1000D00000000000E7010008E70100080000000040
:1000E000210B0008E7010008E701000800F002F812
:1000F00000F05DF814A696E8000CB244B344DA456B
:1001000001D100F054F8BAE80F000FA696E83000CD
:10011000A5EB040504EB0607AAEB0704A7F101070A
:100120004FEA15154FEA3414A4F10104AC4201D38F
:1001300000F03DF813F0010F18BFFB1A43F0010364
:1001400000F001F8DBE71847FC3A00001C3B000018
:10015000103A24BF78C878C1FAD8520724BF30C8F3
:1001600030C144BF04680C60704700007047000055
:100170000023002400250026103A28BF78C1FBD8B0
:10018000520728BF30C148BF0B607047662903F093
:10019000F684002070471FB500F048FB04000020E3
:1001A000002103F0EFF8E0601FBD10B510BD00F0B6
:1001B0003DFC1146FFF7EFFF02F07EFB00F05BFC19
:1001C00003B4FFF7F2FF03BC00F09EFC0948804730
:1001D00009480047FEE7FEE7FEE7FEE7FEE7FEE729
:1001E000FEE7FEE7FEE7FEE704480549054A064B41
:1001F000704700004D280008ED0000087001002045
:100200007007002070030020700300200FB41CB59D
:10021000074B06AA7B4469460090059800F0EDFA6A
:100220000020694600F0FCFA1CBC5DF814FB0000DD
:10023000090600002DE9F0474FF0000A8946044600
:10024000C0F820A02046E1688847002876D02528FD
:1002500006D0D4E901219047206A401C2062F1E7D2
:10026000E168204600258847C4F81CA00646002700
:10027000C4F818A02A2E09D0304603F07BF838B312
:1002800004EB8708303EC8F8186019E059F8041BE1
:10029000204604EB87029161E1688847012F0646FA
:1002A00018D1E069002820DA25F020051DE0D8F8F3
:1002B000180000EB800006EB40003038C8F818004A
:1002C0002046E1688847064603F054F80028EED13E
:1002D000012F0AD02E2E08D12046E16888477F1CC6
:1002E0000646022F45F02005C4DBA069002803DA8A
:1002F000404245F00105A061E80701D025F0100556
:10030000B6B1A6F14100192802D8203645F400659F
:100310004A463146204625604D46FFF737FF58B123
:10032000012806D0ED1D25F0070000F1080989E736
:1003300004E005F1040985E730468AE7206ABDE854
:10034000F08710B5431C02E010F8011B71B1810762
:10035000FAD14FF0013202C88C1A8C4314EAC21150
:10036000F9D0C01A0A0603D0C01E10BDC01A10BDB5
:100370000A0401D0801E10BD0902FCD0401E10BD31
:100380004FF0000200B5134694469646203922BF2E
:10039000A0E80C50A0E80C50B1F12001BFF4F7AF79
:1003A000090728BFA0E80C5048BF0CC05DF804EB5B
:1003B000890028BF40F8042B08BF704748BF20F8C9
:1003C000022B11F0804F18BF00F8012B70477047C7
:1003D000704770472DE9FF4F0C461E464FF0FF3720
:1003E0008BB0D2E90001DDF860800A908A46C1F343
:1003F0000A5505B93D46002108464FF00000BAF104
:10040000000F00F4400005DA00EB80004FF44001DB
:1004100001EA50004FEA9059B9F1010F00DDB946E9
:100420000A9850EA4A000ED044F61050A5F2FF3563
:1004300045432F14B8F1000F1ED07542291E1EDD52
:10044000C9F100021CE0B8F1010F4FF0000001D02B
:10045000302103E0F24305E02154401CB042FBDBB5
:1004600030460022002121540B99C1F80880C1E9CF
:1004700000200FB0BDE8F08FBD1B6D1CDEE74A46C3
:1004800000DA694206A800F05BFA06AB93E80700C1
:1004900003AB83E8070050460A9902F08FFB8DE812
:1004A0000700A0F500501F3800900398002D0ADDCA
:1004B00042F21F014A460844002303A903906846FC
:1004C00002F0F8FD09E0A0F500504A461F3800236D
:1004D00003A90390684602F002FE8DE807000004BD
:1004E000000C03D04FF0FF30410800E01046B8F197
:1004F000000F03D00022009215461EE0751E05D4A1
:1005000000F098F9303262556D1EF9D5B3460122DC
:10051000084302D000227F1C04E02078302801D15B
:1005200000227F1E002A099784D01DE0112D07DAD2
:1005300000F080F9303262556D1C50EA0102F5D1AD
:10054000084302D00098C8B10EE00021681E05E003
:10055000235C625C63542254401E491C8142F7DBD9
:10056000AB46A81B401E0990002004F80B000B9816
:10057000099AC0F80880C0E9002B7AE711264FF0ED
:10058000000857E72DE9F04F88460446D21D22F0B7
:10059000070191B0D1E90001CDE90A0102F0D6FED0
:1005A00002460B98C00F01D02D2007E0206881077C
:1005B00001D52B2002E0202101EAC000032A099086
:1005C00001D0072A05DB03464146204600F078F9B2
:1005D0000BE12078800601D5E06900E00620B8F143
:1005E000650F814606D0B8F1660F18D0B8F1670FD5
:1005F00070D131E00020B9F1110F009001DB11231F
:1006000001E009F101030AAA01A90CA8FFF7E2FE23
:10061000DDE90C70002609F10105834647E0012061
:100620004B4600904FF000470AAA01A90CA8FFF71B
:10063000D1FEDDE90DB00C995D46002610B909F137
:1006400001000D18B9EB050003D4C0F1FF3609F124
:100650000105A5EB09002BE0B9F1010F01DA4FF01C
:1006600001090020B9F1110F0090484601DD112366
:1006700000E003460AAA01A90CA8FFF7ABFEDDE9DA
:100680000C704D4600268346207800070AD4AB45FF
:1006900000DA5D4601A8012D04DD411911F8011CA5
:1006A000302907D04F4502DA17F1040F04DA012090
:1006B00082460FE06D1EEEE7002F02DCED1B3E448C
:1006C00003E0781CA84200DD7D1CB81B00F1010A84
:1006D0004FF000472078000703D4AA4501DB4FF014
:1006E000FF3A0021B7F1004F0DF143088DF8431098
:1006F00024D002202B23002F01DA7F422D230A2150
:10070000021EA0F1010000DC5FB197FBF1FC97FB3A
:10071000F1F201FB1C7C17460CF1300C08F801CDFE
:10072000EEE7A8F1010003702188090501D54521F4
:1007300000E06521A0F1010800F8011C09980FA94B
:10074000A1EB0807FF1D00B10120411901EBEA7080
:10075000A1693844081A401EA0612078C00602D45E
:100760002046AFF30080099828B1D4E901219047D1
:10077000206A401C20622078C00622D52046AFF3B4
:1007800000801EE0002E04DBB34502DD01A8805D81
:1007900000E03020D4E901219047206A401C20620B
:1007A000761CAAF101005FEA000A0AD100F03EF8C7
:1007B000C0680168405CD4E901219047206A401C70
:1007C0002062281EA5F10105DCDC07E0D4E9012147
:1007D00018F8010B9047206A401C2062381EA7F1D0
:1007E0000107F3DC2046AFF30080032011B041E69F
:1007F00001694A1C02610878704700B58FB0CDE9E5
:1008000001310021059105497944CDE903101146D4
:100810006846FFF70FFD0FB000BD0000E5FFFFFFCA
:100820000A6802F8010B0A60704700000048704730
:100830003000002030B5B0F10A0271F100034FEA38
:10084000900E4EEA817EB0EB0E0061EB91014FEA13
:10085000101E4EEA017E10EB0E0041EB11114FEA23
:10086000102E4EEA016E10EB0E0041EB11214FEA03
:10087000104E4EEA014E10EB0E0041EB11414018B4
:1008800041F100014FEAD00040EA41704FEAD10146
:100890004FEA810444EA907410EB800544EB0104B4
:1008A0006D1944EB0404521BA3414FF0000348BFF1
:1008B0000A3200D530BD401C41F1000130BD0000BE
:1008C0002DE9F0411F46044603260168072A01F47A
:1008D000006004DB08B116A505E016A503E008B129
:1008E00015A500E015A521F010002060A069C01E2C
:1008F000A0610FB1401EA0612046AFF300804FB150
:10090000D4E9012138469047206A401C2062C01C6F
:10091000206206E0206AFAE7D4E9012115F8010B0C
:100920009047761EF8D22046AFF30080BDE8F081F4
:100930004E414E006E616E00494E4600696E660083
:100940002DE9F047814616468AB0354878440DC8EF
:100950008DE80D0032487844801C03AC0DC884E853
:100960000D0041F69B300844372190FBF1F290FBDB
:10097000F1F5A5F1800501FB12041B3C02D5644290
:10098000012000E00020DFF898A080460027FA440C
:10099000AAF1BE0A0EE0E0070AD03246684607EB2D
:1009A000470101230AEB810102F099FB8DE8070062
:1009B00064107F1C002CEED1194F7F44AE3F19E02C
:1009C000E80715D007EB04100DF1180A90E80E00A7
:1009D0008AE80E00C068F04201D1981908903246AA
:1009E000012306A903A802F07AFB03AB83E8070002
:1009F0006D10641C002DE3D14FF0010332466946AF
:100A0000B8F1000F03A802D002F054FB01E002F09D
:100A100066FBC9E90001C9F808200AB0BDE8F08703
:100A2000B032000000487047100000207546FFF704
:100A3000F9FFAE4605006946534620F0070085469B
:100A400018B020B5FFF7D0FBBDE820404FF00006FE
:100A50004FF000074FF000084FF0000BAC46ACE839
:100A6000C009ACE8C009ACE8C009ACE8C00921F095
:100A700007018D46704710B50446AFF3008020464D
:100A8000BDE81040FFF79CBB4FF0013C50F8042B31
:100A900051F8043B9A4221D1A2EB0C03934313EA91
:100AA000CC1317D150F8042B51F8043B9A4215D1BE
:100AB000A2EB0C03934313EACC130BD150F8042B95
:100AC00051F8043B9A4209D1A2EB0C03934313EA79
:100AD000CC13DBD04FF00000704700BFD01A01BA32
:100AE000B1FA81F101F0180122FA01F0CB40DBB23A
:100AF000C0B2C01AC1F120012CFA01F3D11A9143FE
:100B000011EAC311E6D1704701491820ABBEFEE7D8
:100B10002600020070470000FEE70000704700005A
:100B20004FF4005000F0B4BB082000F0B1BB00004F
:100B3000202000F0ADBB000010B581B00022009273
:100B400090F82420012A03D10221084601B010BDEB
:100B50004B680122062B80F8242033D8D0F800C03F
:100B600003EB83035A1F1F23DCF834E003FA02F47B
:100B70000B682EEA040403FA02F22243CCF8342074
:100B8000092B03EB430249D9DCF80CE01E3A072499
:100B9000896894402EEA0404914023F00102214325
:100BA000102ACCF80C1043D142F20841C4F20101E2
:100BB000A1F10802944543D0816A41F0200181628D
:100BC000012136E0D0F800C00C2B03EB830213D8D0
:100BD000233A1F23DCF830E003FA02F40B682EEA14
:100BE000040403FA02F22243CCF83020092B03EB71
:100BF0004302C9D812E000BF413A1F23DCF82CE0C1
:100C000003FA02F40B682EEA040403FA02F2224308
:100C1000CCF82C20092B03EB4302B5D8DCF81030BC
:100C2000072489689440A34391401943CCF81010DD
:100C30000021002280F82420084601B010BD00BF2A
:100C40000A681202F4D40A68102B42F400020A6007
:100C5000EED140F20801C2F2000109684DF683624C
:100C6000C4F21B32A1FB0212910C01EB810149007D
:100C7000009100990029DBD0009901390091009979
:100C80000029D5D000990139009100990029CFD0D1
:100C900000990139009100990029C9D000990139C2
:100CA0000091009900294FF00001E5D1C1E7000053
:100CB0000068C06C70470000002804BF0120704726
:100CC000B0B50446806A28B120688168C9070CD095
:100CD00032E000BF0020E06284F82400204600F0EB
:100CE00093F820688168C90726D1A16AC9063DD456
:100CF000A16A41F2021291430231A162E169D4E991
:100D0000013241EA030C531EB3FA83F35D09134623
:100D1000B2F5807F18BF2B02217D257B01294CEA8B
:100D2000450132D145B3A56A45F02005A562E56AC3
:100D300045F00105E56228E0816821F0010181604C
:100D400000F0C2FB054600BF20688168C907CCD00F
:100D500000F0BAFB401B0328F6D3A06A40F0100055
:100D6000A062E06A40F00100E062A06AA06A40F080
:100D70001000A0620120B0BDD4F818C04EF60005E6
:100D8000CFF6FF7505EB4C352B434568B2F5807FF8
:100D900025F4694543EA0503436083684FF2FD7516
:100DA000CFF6E17503EA050343EA0103836001D04E
:100DB000012A07D122690023CFF6F07303EB025218
:100DC00001E000BF0022C36A23F470031A43C26229
:100DD000806840F6FE62CFF61F721040884207D14D
:100DE0000020E062A16A012262F30101A162B0BDAC
:100DF000A06A40F0100020F00200A062E06A40F01B
:100E00000100E0620120B0BD80B586B0014640F629
:100E10000000C4F20100096800F5E05291424FF071
:100E20000001CDE9041101D006B080BD41F21801E6
:100E3000C4F202010A6842F400720A600A6802F40D
:100E400000720192019A0A6842F004020A6009687D
:100E500001F00401019101990321CDE9021102A9D8
:100E600000F022FA06B080BD2DE9F04182B00027E3
:100E70000D460446019700F027FB21688A68D205D9
:100E800044D406464868C00503D4C86A10F4700FFD
:100E900046D040F20800C2F20000076842F29248D1
:100EA0000220C1F2492800F0CBFB216844F624134C
:100EB0000A69B7FBF0F0C2F292431A4206D1CA683F
:100EC00044F62413C0F292031A4249D00A6912EA86
:100ED000080F07D1CA6842F29243C0F249031A428E
:100EE00000F084800A6949F24923C0F224031A42BF
:100EF0004FF0FC0242D1CF681F4208BF5422019B31
:100F000002FB00F7BB423ED379E000BFA06A40F08D
:100F10002000A06284F82470012002B0BDE8F081B6
:100F2000086880076BD4002D55D0681C12D1086862
:100F3000800764D4086880075CBF08685FEA807037
:100F40005DD408688007F2D559E000BF21680868C1
:100F5000800754D400F0B8FA801BA842F6D93AE0D2
:100F60000A6912EA080F4FF0290207D1CB6842F252
:100F70009247C0F249073B4208BF1422019B02FB83
:100F800000F7BB423BD235B3681C1FD1019801303A
:100F900001900198B84232D2019801300190019835
:100FA000B8422CD20198013001900198B84226D263
:100FB0000198013001900198B842E7D31FE000BFCB
:100FC0000198013001900198B84217D200F07CFAE4
:100FD000801BA842F4D9A06A40F00400A06200205F
:100FE00084F82400032002B0BDE8F0815422019B64
:100FF00002FB00F7BB42C6D301E000BF21686FF0DF
:1010000012000860A06A40F40070A062886800F4D2
:101010006020B0F5602F01D1207B18B1002002B014
:10102000BDE8F081A06A20F48070A062A06AC004CC
:10103000F4D4A06A40F00100A062002002B0BDE834
:10104000F0810000B0B582B0044690F82400012879
:1010500002D1022002B0B0BD012084F8240000209B
:10106000019020688168C90742D1816841F001017F
:10107000816040F20800C2F2000000684DF6836112
:10108000C4F21B31A0FB0101880C01900198A0B1B2
:10109000019801380190019878B1019801380190C8
:1010A000019850B1019801380190019828B1019838
:1010B0000138019001980028EAD100F005FA0546B0
:1010C00020688168C90713D100F0FEF9401B02288F
:1010D000F6D9A06A40F01000A062E06A40F001007A
:1010E000E062002084F82400012002B0B0BD00BFFF
:1010F000A26A42F2044140F20133C4F201019A4370
:1011000002F5807301F57F729042A3622ED0A36A2C
:1011100023F48013A36243685B0504D5A36A012509
:1011200065F30D33A362A56A0023ED044FF00005BB
:1011300044BFE56A25F00605E56284F824306FF0C7
:1011400002030360836803F46023B3F5602F05D1C5
:10115000904217D1096811F4702F13D0816841F4BF
:1011600080118160002002B0B0BD00BF0B6813F495
:10117000702FCCD0A36A43F48013A3620B685B0585
:10118000CCD4D0E7816841F4A0018160002002B096
:10119000B0BD0000B0B5044690F82400012804BF9B
:1011A0000220B0BD0121206884F824108168C9079D
:1011B00008D1214651F8280F41F2011220EA02021B
:1011C000002018E0816821F00101816000F07CF9C5
:1011D000054600BF20688068C007EAD000F074F9B7
:1011E000401B0328F6D3A06A214640F01000A062FD
:1011F00051F82C2F012042F001020A60002184F8EE
:101200002410B0BD202823D110B540F20C00C2F24A
:101210000000016840F600044B1EA1F10101B1FA83
:1012200081F1C4F2010418BF01234A09036020467A
:10123000402100F043F904F580600121002200F014
:101240003DF9204680210022BDE8104000F036B96B
:1012500040F20C01C2F200010968082808BF002909
:101260000CD0B0F5005F0CBF0029704740F60000BD
:10127000C4F20100802100F019B900BF40F600005F
:10128000C4F2010000F58060012100F00FB90000F8
:1012900040F21441C4F201010A68024214BF08601E
:1012A0007047FFF7AFBF00002DE9F04F82B00E6826
:1012B000002E00F0F78040F20C4C40F2004E41F25C
:1012C0000002C4F2010CC4F2010EC4F201020327B1
:1012D000002401234FF0000B4FF00009904208BF9B
:1012E0000227009749E000BF40F60042C4F2010225
:1012F000009F904208BF012704F00C030F229A4080
:101300002AEA020207FA03F34FEA9B051A4346F85A
:1013100025204E68F203DEF8002054BF22EA0802BE
:1013200042EA0802CEF80020DEF80420B30354BFDE
:1013300022EA080242EA0802CEF80420F302DEF8AC
:10134000082054BF22EA080242EA0802B302CEF89B
:101350000820DCF800204FF0010354BF22EA080205
:1013600042EA0802CCF800200E680BF1010B36FAB5
:101370000BF204F1040400F0958003FA0BFA16EA6C
:101380000A08F1D04E684FF6FF72C1F21002964281
:1013900012DC122E56D8DFE806F0350B45495555BC
:1013A00055555555555555555555554D510000BF39
:1013B000D1F80C9046E000BF4FF6FF72C1F2210257
:1013C00096420FDC0022C1F2110296421AD000228E
:1013D000C1F21202964215D00022C1F221029642B9
:1013E00010D02FE00022C1F2220296420AD0002241
:1013F000C1F23102964205D00022C1F23202964279
:1014000020D100BF8A684AB1012A14BFC0F814A0D5
:10141000C0F810A04FF0080914E000BF4FF0040915
:1014200010E000BFCA6802F108090BE04FF00009A4
:1014300008E000BFCA6802F1040903E0CA6802F1CB
:101440000C0900BF22460646B8F5807F24BF203A2B
:10145000043637680F25954027EA050509FA02F298
:101460002A433260CA79D2067FF57EAF41F2180373
:10147000C4F202031A68AEF57E7642F001021A60E9
:101480001A6802F001020192019A2BF0030256F849
:1014900002A040F60002C4F2010290427FF424AFA1
:1014A000002729E702B0BDE8F08F0000C2681423CE
:1014B0000A4208BF1023C15070470000002A08BF2D
:1014C000090401617047000040F26810C2F2000098
:1014D0000068704740F2000040F26811C2F200005C
:1014E000C2F2000100780A681044086070470000EA
:1014F00080B542F20000C4F20200016841F0100120
:101500000160032000F08CF80F2000F005F800F0D7
:1015100027F8002080BD000070B540F20006C2F23E
:10152000000640F208013278C2F200014FF47A73EB
:101530000968B3FBF2F20446B1FBF2F1084600F091
:1015400087FC0F2C4FF0010508D838B94FF0FF3059
:1015500021460022002500F037F87460284670BD4F
:1015600082B041F21800C4F202000168042241F086
:1015700001010160016801F00101019101994168D7
:1015800041F080514160406800F080500090009828
:101590000420C4F20100016862F31A61016002B024
:1015A00070470000002848BF704700F01F0101226B
:1015B00002FA01F11C2202EAD0004EF20012CEF231
:1015C000000281507047000010B54EF60C5CCEF260
:1015D000000CDCF80030C3F3022E8EF00704042C5C
:1015E00028BF0424BEF103034FF0FF3E0EFA04F4BB
:1015F00038BF0023A14399400EFA03F39A431143E5
:1016000000F00F0200F160430901043A03F564435E
:101610006244002848BF02F10C03197010BD00009D
:101620004EF60C51CEF200010A684FF6FF031A4045
:1016300060F30A2242F0806040F0FD70086070475D
:1016400001280FD002282DD0102808D141F2040122
:10165000C4F202010A6851F8040CC00134D400201D
:10166000704700BF41F20400C4F20200C16940F2B9
:1016700002320A40B2F5817F04BF4FF40040704748
:1016800001F44071B1F5407F2AD0B1F5007F1CBF55
:1016900000207047006A49F64041800701EAE07087
:1016A000704700BF80B500F0BFF941F20401C4F2F9
:1016B000020109680222C1F3813102EB4101B0FB52
:1016C000F1F0BDE880407047C2F3834015A3185C79
:1016D000D2030DD440F60012C0F23D02504313E095
:1016E00050F8040C4FF22441800301EAE070704787
:1016F0000A6810A3C2F340429A5C41F20023C0F290
:101700007A03B3FBF2F250430968490248BF7047BD
:101710004AF6AB214000CAF6AA21A0FB0101480805
:10172000704700BF02030405060708090A0B0C0DE9
:101730000E0F1010010200002DE9F04182B00446A6
:10174000007841F21C06C007C4F202064AD0306895
:101750005FEAC00808D4306840F0805030603068DC
:1017600000F080500190019847F20007C4F2000792
:101770003868C00512D4386840F480703860FFF7CC
:10178000A3FE05463868C00508D4FFF79DFE401B40
:101790006428F7D9032002B0BDE8F081706810F426
:1017A000407012D0616801F4407188420DD07068B9
:1017B00040F24042C4F24222012320F440711360FF
:1017C0000023C0071360716026D17068616820F43F
:1017D00040700843B8F1000F706003D4306820F007
:1017E000805030602068810707D556F8181CA26821
:1017F00021F44041114346F8181CC00607D556F89D
:10180000180CE16820F48000084346F8180C00200A
:1018100002B0BDE8F08100BFFFF756FE054641F279
:10182000883700BF70688007CFD4FFF74DFE401B9C
:10183000B8424FF00300F5D9EAE70000002804BFE2
:10184000012070472DE9F04381B042F20008C4F254
:1018500002080446D8F800000D4600F00700884250
:101860000CD2D8F8000020F007002843C8F8000088
:10187000D8F8000000F00700A8426CD1206841F2BF
:1018800004098107C4F2020917D5410705D5D9F823
:10189000001041F4E061C9F80010010705D5D9F83E
:1018A000001041F46051C9F80010D9F80010A26886
:1018B00021F0F0011143C9F80010C00742D1D8F857
:1018C000000000F00700A8420CD9D8F8000020F072
:1018D00007002843C8F80000D8F8000000F007000F
:1018E000A84238D12068410707D5D9F80010E2682E
:1018F00021F4E0611143C9F80010000708D5D9F8B8
:101900000000216920F4605040EAC100C9F80000DD
:10191000D9F8002002F00C00082841F20020C0F2A3
:101920007A0051D143F63243C2F38341C0F600033B
:10193000595CD2033CD440F60010C0F23D0048434D
:1019400042E000BF606802280AD001282AD159F875
:10195000041C890308D4012001B0BDE8F08300BF56
:1019600059F8041C8901F6D5D9F8001021F00301BB
:101970000843C9F80000FFF7A7FD064641F2883783
:10198000D9F80000616800F00C00B0EB810F96D030
:10199000FFF79AFD801BB842F2D9032001B0BDE8E1
:1019A000F08300BF59F8041C8907D4D5DCE700BFD9
:1019B000D9F8002043F61843C2F34042C0F60003B2
:1019C0009A5C4843B0FBF2F0D9F8001043F61A4293
:1019D000C1F30311C0F60002515C40F2080220FA84
:1019E00001F140F20400C2F200000068C2F20002FD
:1019F0001160FFF791FD002001B0BDE8F083000009
:101A000040F2080041F20401C2F20000C4F20201F7
:101A10000068096843F62A42C1F30221C0F60002B9
:101A2000515CC8407047000040F2080041F20401D8
:101A3000C2F20000C4F202010068096843F62A42BB
:101A4000C1F3C221C0F60002515CC84070470000DB
:101A5000002804BF012070472DE9F04182B0044600
:101A6000007841F20006C007C4F202060CD070688C
:101A700000F00C00042840F081803068800303D51A
:101A80006068002800F04E81207880071BD57068C0
:101A900010F00C0F09D0706800F00C00082840F01E
:101AA0008B807068C00300F187803068800703D5A1
:101AB0002069012840F036813068616920F0F80023
:101AC00040EAC10030602078000713D42078400736
:101AD0002CD4E569002D00F02081706800F00C0026
:101AE000082840F0AF80012D40F00C81012002B0A9
:101AF000BDE8F081A069002800F08C800020C4F2CD
:101B000042200121C0F88014FFF7DEFC054600BF2B
:101B1000706A800700F1BA80FFF7D6FC401B0228EC
:101B2000F6D9032002B0BDE8F08100BFF0695FEA9A
:101B3000C00808D4F06940F08050F061F06900F00E
:101B400080500090009847F20007C4F20007386800
:101B5000C0054DD4386840F480703860FFF7B4FC9D
:101B6000054600BF3868C00542D4FFF7ADFC401BF6
:101B70006428F7D9032002B0BDE8F081706800F056
:101B80000C00082803D17068C0033FF576AF606889
:101B9000002800F00981B0F5A02F00F01D81B0F5FC
:101BA000803F00F01D81306820F480303060306864
:101BB00020F4802017E100BF2069002840F20000D7
:101BC000C4F2422000F08C8001210160FFF77CFC10
:101BD000054600BF306880073FF56EAFFFF774FC25
:101BE000401B0228F6D9032002B0BDE8F08100BFF7
:101BF000E068002800F09A80052800F0B1800128F4
:101C000000F0B280306A20F001003062306A20F0CB
:101C10000400ACE00020C4F242200021C0F880148F
:101C2000FFF752FC054600BF706A80077FF54EAF94
:101C3000FFF74AFC401B0228F6D9032002B0BDE89A
:101C4000F08100BF0027C4F2422700203866FFF76A
:101C50003BFC022D05460DD13068800140F1D68055
:101C6000FFF732FC401B02284FF00300F4D902B00A
:101C7000BDE8F081306880014FD5FFF725FC401B9F
:101C800002284FF00300F5D9F1E700BF40F2080049
:101C9000C2F20000006844F6D351C1F26201A0FB19
:101CA0000101480A019000BF00BF0198411E0028B1
:101CB00001913FF40BAF00BF0198411E0028019134
:101CC0003FF404AF00BF0198411E002801913FF48A
:101CD000FDAE00BF0198411E00280191E4D1F5E658
:101CE00000210160FFF7F0FB054600BF3068800768
:101CF0007FF5E9AEFFF7E8FB401B02284FF0030039
:101D0000F4D9B4E77068216A00F480328A4209D1BC
:101D1000616A00F47010884204D1002002B0BDE86E
:101D2000F08100BF012002B0BDE8F081306A20F0F0
:101D300001003062306A20F004003062FFF7C4FB1B
:101D4000054641F2883700BF306A800722D5FFF789
:101D5000BBFB401BB8424FF00300F5D987E700BF3B
:101D6000306A40F004003062306A40F001003062B6
:101D7000FFF7AAFB054641F2883700BF306A8007AB
:101D800008D4FFF7A1FB401BB842F7D9032002B0EB
:101D9000BDE8F081B8F1000F3FF59BAEF06920F08F
:101DA0008050F06195E600BF306820F480303060EC
:101DB000306820F480203060FFF786FB054600BFC6
:101DC000306880037FF560AEFFF77EFB401B642820
:101DD0004FF00300F4D94AE7306840F480203060C7
:101DE000306840F480303060FFF76EFB054600BF7E
:101DF000306880033FF548AEFFF766FB401B642860
:101E0000F6D9032002B0BDE8F08100BF206AB0F52A
:101E1000803F05D17168A26821F4003111437160DF
:101E20007168626A21F474111143084370600120E3
:101E30003866FFF749FB0446306880013FF56DAF17
:101E4000FFF742FB001B02284FF00300F4D90EE716
:101E5000411E0020B0EB116F1CBF012070474EF2F5
:101E60001002CEF2000251604EF62351CEF2000174
:101E7000F0230B70072190601160704770470000DD
:101E80007047000090F83C20012A4FF0020218D061
:101E900010B580F83D200268D2F804E0D2F808C0FE
:101EA00012C92EF0700319432CF0800323435160B4
:101EB00093600121002280F83D1080F83C20BDE8AD
:101EC0001040104670470000002804BF01207047F2
:101ED00010B5044690F83D0028B9002084F83C0075
:101EE000204600F03FF8022084F83D00206842F6CA
:101EF000004C0268B0F1804FC4F2010C18BF60457D
:101F000004D1A36822F070021A4305E040F20043B6
:101F1000C4F200039842F4D0B0F1804F18BF60457E
:101F200004D1236922F440721A4305E040F20043D1
:101F3000C4F200039842F4D0A16922F08002D4F8E0
:101F400004E0E368114360450160C362C0F828E023
:101F500002D16169CCF8301001214161002084F880
:101F60003D1010BD10B582B0006840F20041C4F2CF
:101F70000001884212D0B0F1804F29D141F21C00FB
:101F8000C4F2020001681C2441F0010101600068F4
:101F900000F00100019001980EE000BF41F21C002A
:101FA000C4F2020001681D2441F0020101600068D2
:101FB00000F0020000900098204600210022FFF768
:101FC00003FB204602B0BDE81040FFF7EBBA00BFAC
:101FD00002B010BD0068C16841F00101C1608168B4
:101FE00001F00701062903D0016841F001010160F9
:101FF00000207047006841F21112C16821F0010110
:10200000C160016A114201D000207047016A40F2AC
:1020100044421142F8D1016821F001010160002021
:102020007047000090F83C20012A4FF0020200F0B7
:10203000C28080B580F83D20D0F800C04FF677729E
:10204000DCF8083023EA0202CCF808200B683F2BAA
:102050001CDD5F2B20DD602B50D0B3F5005F6DD011
:10206000702B40F0A080D1E901E3C968DCF80820BA
:1020700043EA0E0322F47F4243EA01211143CCF8E4
:102080000810DCF8081041F077018AE01F2B29DCEA
:1020900063B3102B2AD086E0402B63D0502B40F046
:1020A0008280D1F804E0C968DCF82030DCF8202018
:1020B00022F00102CCF82020DCF8182022F0F002F7
:1020C00042EA011123F00A0242EA0E02CCF818108B
:1020D000CCF82020DCF8081041F0570121F0200155
:1020E0005FE000BF202B01D0302B5CD1DCF8081062
:1020F00021F07001194341F0070152E0D1F804E0EA
:10210000C968DCF8203023F01003CCF82030DCF86C
:102110001830DCF8202023F4704322F0A00243EAB8
:10212000013142EA0E12CCF81810CCF82020DCF86D
:10213000081041F0670121F0100132E0D1E901E31C
:10214000C968DCF8082043EA0E0322F47F4243EA20
:1021500001211143CCF80810DCF8081041F480414B
:102160001FE000BFD1F804E0C968DCF82030DCF8DB
:10217000202022F00102CCF82020DCF8182022F0E8
:10218000F00242EA011123F00A0242EA0E02CCF800
:102190001810CCF82020DCF8081041F0470121F09D
:1021A0003001CCF808100121002280F83D1080F8A1
:1021B0003C20BDE88040104670470000704700009A
:1021C00010B5016804460869800744BFC8685FEA23
:1021D000807039D40869400744BFC8685FEA40701E
:1021E0003ED40869000744BFC8685FEA007045D460
:1021F0000869C00644BFC8685FEAC0604AD408697D
:10220000C0071CBFC8685FEAC07051D108690006EA
:1022100044BFC8685FEA006052D40869400644BF02
:10222000C8685FEA406053D40869800646BFC86842
:102230005FEA806010BD6FF0200220460A61BDE8B1
:102240001040FFF71DBE00BF6FF0020008610120C3
:1022500020778869800743D02046FFF7AFFF45E02D
:102260006FF00400086102202077886910F4407F35
:1022700040D02046FFF7A2FF42E000BF6FF0080009
:10228000086104202077C86980073DD02046FFF709
:1022900095FF3FE06FF01000086108202077C869C3
:1022A00010F4407F3AD02046FFF788FF3CE000BFA3
:1022B0006FF001000861204600F03EF82168A5E7B4
:1022C0006FF0800008612046FFF7D8FD2168A4E781
:1022D0006FF040000861204600F038F92168A3E75C
:1022E000204600F025F8204600F024F82168002060
:1022F00020776FE7204600F01BF8204600F01AF820
:102300002168002020776CE7204600F011F8204675
:1023100000F010F821680020207769E7204600F0DF
:1023200007F8204600F006F821680020207766E7CD
:1023300070470000704700002DE9F04F91B08346D0
:10234000006840F60049B0F1804FC4F2010907D09F
:10235000A9F58431884200F0CC8011B0BDE8F08F3F
:1023600040F27005C2F2000505F108042046FEF7B0
:1023700069FE20464FF0FF31FEF776FD2046FEF75E
:1023800097FC28602046FEF75DFE20464FF0FF31A7
:10239000FEF76AFD2046FEF78BFC68602046FEF7DC
:1023A000F9FED5E9006000EB800001F08DF94FF6F1
:1023B0000064C4F2AF040022234601F02BF800278A
:1023C000C4F2590700223B4601F092F900F0F0FFF9
:1023D000824606EB860001F077F90022234601F0E1
:1023E00019F800223B4601F083F900F0E1FF0021DB
:1023F0000646C4F22021504601F0C6FA40F20C0411
:10240000C2F200042768002808BF012F0AD1A9F5ED
:10241000806080210122FFF751F805F13800FFF7B5
:10242000D9FD27680021C4F2A011304601F09EFAC0
:10243000002808BF012F05D1484601210122FFF7DE
:102440003DF827680021C4F2A011304601F09CFA43
:10245000002808BF012F04D1484601210022FFF7C0
:102460002DF82C480DF1140C04902AA0071D8ECFD6
:1024700040698CE88E000990484604210122FFF74C
:102480001DF804AF3846FDF75CFF40F22818C2F291
:10249000000882B2404639464FF0FF3300F006F99B
:1024A000304601F023FA064650460F4601F01EFA68
:1024B000009000200D460021C4F2590004AC0291A6
:1024C00003901AA1204632463B460195FDF79EFE39
:1024D0002046FDF736FF82B2404621464FF0FF33DB
:1024E00000F0E4F8DBF80000A9F5843188427FF4BD
:1024F00034AFA9F5806080210022FEF7DFFF40F2B3
:102500007000C2F200003830FFF774FD11B0BDE872
:10251000F08F00BF68756D696469747920776172A6
:102520006E696E67212121200D0A00004C3A20259A
:102530002E30662C20543A20252E30662C20483A26
:1025400020252E3066200D0A000000007047000094
:10255000002804BF0120704710B5044690F83900E8
:1025600028B9002084F83800204600F061F82420C3
:1025700084F839002068D4E90212C36823F40053B8
:10258000C360036923F440531A430261D4E904236E
:102590001143C268194341F20C639A431143C1606D
:1025A0004169A26921F44071114343F60002C4F26B
:1025B00001029042416103D0FFF722FA02E000BF1E
:1025C000FFF732FAD4E90023192148439900B0FB00
:1025D000F1F048F21F5CC5F2EB1CA0FB0C314FF68A
:1025E0009C734909C0F6FF7301FB0300322303EB20
:1025F0000010A0FB0C03F02000EA531000EB0110C8
:10260000C3F34311084490601069202120F49040E6
:102610001061506920F02A005061D06840F40050E9
:10262000D0600020E06384F8391084F83A1010BDBF
:1026300070B586B040F60004C4F20104006804F5E9
:10264000405100268842049602D006B070BD00BFFB
:1026500041F21800C4F20200016802AD41F4804169
:102660000160016801F4804101910199016841F024
:10267000040101600068294600F0040001900198FF
:102680004FF4007002900220039003200590204632
:10269000FEF70AFE4FF48060CDE902062046294687
:1026A0000496FEF701FE06B070BD00002DE9F04172
:1026B000044690F8390020280ED10F4600294FF02B
:1026C000010000F0B4801646002A08BFBDE8F08182
:1026D00094F83800012803D10220BDE8F08100BF42
:1026E000012084F838000020E06321201D4684F892
:1026F0003900FEF7E9FEA684E684E18C064600294F
:1027000060D005F1010805E017F8011B4160E18C7C
:10271000002958D0E08C0138E0842068A168026864
:10272000B1F5805F4FEA02611ED100290ED4B8F1E5
:10273000000F2BD0002D69D0FEF7C6FE811B20684C
:10274000A94263D801680906F6D500BF39886FF33E
:102750005F2141602169002914BF01370237E18CF4
:102760000029D7D12FE000BF0029CDD4B8F1000F48
:102770001AD0002D4AD000BFFEF7A6FE811B2068AC
:10278000A94243D801680906F6D5BDE701680906E4
:10279000DCD4016809065CBF01685FEA0161D5D439
:1027A00001680906F2D5D1E701680906ACD40168D1
:1027B00009065CBF01685FEA0161A5D401680906EA
:1027C000F2D5A1E72068016849061AD4F5B1691C61
:1027D0000ED10168490614D4016849065CBF01683E
:1027E0005FEA41610DD401684906F2D509E000BFF6
:1027F000FEF76AFE811B2068A94207D800684006E0
:10280000F6D5202084F8390000200DE0C16821F4BD
:10281000D071C160416921F001014161202084F83B
:10282000390084F83A000320002184F83810BDE80C
:10283000F0810000FEE70000FEE70000FEE7000078
:102840007047000070470000FEF744BE41F20000F0
:10285000C4F202000168002241F0010101604168F8
:10286000CFF6FF021140416001684FF6FF72CFF6CC
:10287000F66211400160016821F480210160416825
:1028800021F4FE0141604FF41F0181604EF60850B3
:10289000CEF200004FF000610160704740F2E800A6
:1028A000C2F20000FFF78CBC40F2A800C2F20000A8
:1028B000FFF786BCFEE7000094B0FEF719FE0AACF5
:1028C000201D2421FDF75CFD02200A9001200E90BE
:1028D000102000250F9020460395CDE90155119554
:1028E000FFF7B6F820B1EFF3108072B6FEE700BF35
:1028F0000F20CDE9040504A80021CDE9065508956F
:10290000FEF79CFF20B1EFF3108072B6FEE700BF28
:102910004FF0020A00246846CDF800A00294FEF7AA
:102920000BFF28B1EFF3108072B600BFFEE700BFC7
:1029300041F218000D94C4F20200016840F600480C
:1029400041F0040101600168C4F2010801F00401D2
:10295000049104990168A8F5806641F008010160BE
:102960000068C02100F0080004900498304600225E
:102970004FF0C009FEF7A2FD404607210022FEF7F6
:102980009DFD42F2200040F2000B0AAD0A90C1F218
:10299000110B012730462946CDF82CB00C97FEF7D5
:1029A00083FC30462946CDF828904FF00709CDE941
:1029B0000B74CDF834A0FEF777FC40462946CDE9EC
:1029C0000A97CDE90C4AFEF76FFC0820CDE90A0B07
:1029D000404629460C97FEF767FC2020CDE90A0403
:1029E000404629460C94FEF75FFC09200021002296
:1029F000FEF7EAFD0920FEF7D5FD17200021002291
:102A0000FEF7E2FD1720FEF7CDFD28200021002271
:102A1000FEF7DAFD2820FEF7C5FD40F27006C2F28F
:102A2000000608F5C051304640F8081F4FF4807189
:102A30004FF4602204730775C0E90672C0E90141D2
:102A4000C0F810A0FEF738F920B1EFF3108072B68D
:102A5000FEE700BF00200AA906F1080581E881020F
:102A60000AA92846FEF768F820B1EFF3108072B685
:102A7000FEE700BF01200A9002200B900AA9284619
:102A8000FEF75AF820B1EFF3108072B6FEE700BFF0
:102A900040F2281008F53051C2F2000000240C2347
:102AA0004FF4E13280E81600C0E90344C0E9053480
:102AB000C461FFF74DFD28B1EFF3108072B600BF7F
:102AC000FEE700BFA8F58431304640F8381F41F6D4
:102AD0003F7141F657320D94CDE90B44CDE90444E2
:102AE000C0E90114C0E903248461FFF7EDF928B1BE
:102AF000EFF3108072B600BFFEE700BF4FF48050C6
:102B000006F138050A900AA92846FFF78BFA28B182
:102B1000EFF3108072B600BFFEE700BF04A928469D
:102B2000FFF7B0F920B1EFF3108072B6FEE700BFF7
:102B300040F2E8000021C2F200004FF0804241F66E
:102B40003F7340F2E7370D91CDE90B11CDE9041148
:102B5000C0E90023C0E9021701618161FFF7B4F900
:102B600020B1EFF3108072B6FEE700BF4FF4805043
:102B70000A9040F2E800C2F200000AA9FFF752FAF8
:102B800020B1EFF3108072B6FEE700BF40F2E8001C
:102B9000C2F2000004A9FFF775F918B1EFF3108035
:102BA00072B6FEE740F2E800C2F20000FFF712FA48
:102BB000404602210122FEF781FCF9E75FEA400C62
:102BC00008BF91F0000F4FEA8C234FEAC12243EA7D
:102BD00051514FEA1C5018BF00F5F0404FEA300049
:102BE00018BF41F000415FEA6C5C00F02980BCF145
:102BF000FF3F08BF40F080407047130C06BF12042F
:102C00004FF0100C4FF0000C130E04BF12020CF129
:102C1000080C130F04BF12010CF1040C930F04BF36
:102C200092000CF1020CD30F04BF52000CF1010C06
:102C300011464FF00002A0F11F00A0EB0C007047FE
:102C400011F0004F08BF704731F000413FF4D5AF9D
:102C50000B0C06BF09044FF0100C4FF0000C0B0ECC
:102C600004BF09020CF1080C0B0F04BF09010CF1A1
:102C7000040C8B0F04BF89000CF1020CCB0F04BFB6
:102C800049000CF1010CCCF1200322FA03F341EAD4
:102C9000030102FA0CF2A0EB0C0000F101007047F6
:102CA00023F07F4720F07F4C80EA030000F00040D3
:102CB000ACEB070303F57C5303F1FF032DE98049D7
:102CC00009B44FEA144324EA03484FEA154B25EAB6
:102CD0000B4E0FF2042606EB13273E7803FB066724
:102CE000C7F5000707FB06F64FEAD64606F10206CF
:102CF0004FEA543707FB066CCCF1005C4FEA1C47E7
:102D00002CEA074C0CFB06F507FB06F404EB154612
:102D10004FEA961649085FEA320234BF00204FF0AE
:102D200000404FEAD13706FB07FC4FEA1C4C0CFB76
:102D30000BF7D21B03FB0CF761EB07010CFB0EF743
:102D4000B0EB074072EB17420CFB08F734BFA2EB65
:102D50000742B2EB074261EB17414FEA0C444FEADE
:102D6000910706FB07FC4FEA1C4C0CFB0BF7B0EB82
:102D7000C74072EB573203FB0CF734BFA2EBC742DC
:102D8000B2EBC74261EB57310CFB0EF7B0EBC7005B
:102D900072EB57720CFB08F734BFA2EBC702B2EB21
:102DA000C70261EB57714FEA816141EA92114FEA24
:102DB000826242EA90124FEA806004EBCC04039FE7
:102DC0004FEAD13706FB07FC4FEA1C4C0CFB0BF714
:102DD000D21B03FB0CF761EB07010CFB0EF7B0EB0A
:102DE000074072EB17420CFB08F734BFA2EB074217
:102DF000B2EB074261EB17414FEA8C5504EB9C2480
:102E00004FEA910706FB07FC4FEA1C4C0CFB0BF743
:102E1000B0EBC74072EB573203FB0CF734BFA2EBA9
:102E2000C742B2EBC74261EB57310CFB0EF7B0EB78
:102E3000C70072EB57720CFB08F734BFA2EBC70256
:102E4000B2EBC70261EB57714FEA816141EA92111F
:102E50004FEA826242EA90124FEA806015EB4C25FD
:102E600044F100044FEAD13706FB07FC4FEA1C4C43
:102E70000CFB0BF7D21B03FB0CF761EB07010CFB00
:102E80000EF7B0EB074072EB17420CFB08F734BFAC
:102E9000A2EB0742B2EB074261EB17414FEA8131E7
:102EA00041EA92414FEA823242EA90424FEA803050
:102EB0004FEA0C7615EB1C1544F1000448EA034375
:102EC0004EEA0B484FF0000EB2EB080C71EB030713
:102ED00024BF624639464EEB0E0E4FF0000B001831
:102EE000524149414BEB0B0BB2EB080C71EB030762
:102EF0007BF1000B24BF624639464EEB0E0E4FF0BD
:102F0000000B0018524149414BEB0B0BB2EB080C84
:102F100071EB03077BF1000B24BF624639464EEB91
:102F20000E0E51EA020718BF46F0010616EB0E76A8
:102F300055F1000254F1000103D5BDE88901BDE857
:102F40000088BDE88901BDE80048B619524141EB4F
:102F50000101A3F10103704780807F7E7D7C7B7A35
:102F60007978777676757473727171706F6E6E6D35
:102F70006C6C6B6A6A6968686766666564646363DB
:102F800062616160605F5F5E5E5D5D5C5C5B5B5A61
:102F90005A595958585757565655555554545353CE
:102FA00052525251515050504F4F4F4E4E4D4D4D29
:102FB0004C4C4C4B4B4B4A4A4A4949494848484774
:102FC00047474746464645454544444444434343B2
:102FD00043424242424141419C46002B30D477005B
:102FE0002BD04FEA37071CB503B44FF010004FF059
:102FF0001001BAF1000F06D0BCF1000FDCBF40F0A9
:10300000080040F008014FF000000FBCBDE8104080
:103010000BF1010BBBF1010F08BF5FEA170722BFDD
:1030200012F1010211F101014FF0004143F10003DF
:1030300000F0004043EA00007047F9D35708D0E79A
:1030400046EA06464FEA164613F1400F1FDD13F11C
:10305000200FDFBF16430A46002120335B42BED05B
:10306000C3F1200746EA06464FEA164602FA07F77A
:1030700046EA070622FA03F2C3F1200701FA07F72E
:1030800042EA070221FA03F14FF00003A7E746EAFC
:10309000020646EA06464FEA164646EA0106BCBF65
:1030A00046EA0646360C4FF000034FF000024FF0A0
:1030B000000194E72DE9804C70B49A46934691E85C
:1030C000380007C831EA400C48BF34EA430C03D546
:1030D000FFF7E6FDFFF780FFF0BCBDE8008C2DE9AF
:1030E000804C70B49A46934691E8380007C810F0B7
:1030F000804F08BF13F0804F03D100F005F8FFF7B1
:103100006BFFF0BCBDE8008C20F07F4723F07F4CC4
:1031100080EA030000F0004007EB0C03A3F57C53AA
:10312000A3F1FE0392F0000F00F0B38095F0000FC2
:1031300000F077802DE901494FEA114021EA00486B
:103140004FEA144624EA064700FB06FC08FB06F695
:1031500007FB08F818EB06484CEB164C00FB07F78A
:1031600018EB07484CEB17404FEA124B22EA0B4E84
:103170004FEA154625EA06470BFB06FC0EFB06F652
:1031800007FB0EFE1EEB064E4CEB164C0BFB07F737
:103190001EEB074E4CEB174B18EB0B0840F10000F1
:1031A00018EB0E0B58EB000840F100008F1A4FF09F
:1031B00000014FF000063CBFC943661B14BFB5EBCE
:1031C000040C00213CBFC943F61B4FEA174427EA11
:1031D00004454FEA1C472CEA074C04FB076205FB39
:1031E00007F70CFB05F616EB074642EB174204FB0C
:1031F0000CFC16EB0C4642EB1C421BEB060658EB94
:10320000020241414EEA8E0E46EA9E0601D5BDE815
:103210000189B619524141EB0101A3F10103BDE857
:1032200001894FEA144524EA05464FEA114721EA8D
:10323000074C05FB07F406FB07F70CFB06F111EB47
:10324000074144EB174405FB0CFC11EB0C4144EB2C
:103250001C444FEA124722EA074C05FB07F206FB23
:1032600007F70CFB06F616EB074642EB174205FB89
:103270000CFC16EB0C4642EB1C456A1854F100019D
:1032800048BF7047B619524141EB0101A3F1010358
:10329000704795F0000F37D04FEA114221EA0246FD
:1032A0004FEA144724EA074C02FB07F106FB07F735
:1032B0000CFB06F414EB074441EB174102FB0CFC3A
:1032C00014EB0C4441EB1C414FEA154725EA074C2F
:1032D00002FB07F506FB07F70CFB06F616EB0746A5
:1032E00045EB174502FB0CFC16EB0C4645EB1C426C
:1032F000121951F1000148BF7047B619524141EB14
:103300000101A3F1010370474FEA144524EA054681
:103310004FEA114721EA074C05FB07F106FB07F7C7
:103320000CFB06F212EB074241EB174105FB0CFCCC
:1033300012EB0C4251EB1C414FF0000648BF7047A6
:10334000921841EB0101A3F101037047490050EAD3
:10335000C12018BF04204A0D18BF40F0010040F200
:10336000FF72B2EB515F08BF40F00200012808BFB6
:103370000520704730380A2801D20120704700200C
:103380007047000010B500290AD00878002807D03F
:1033900005487844FDF778FB002801D0002010BDD7
:1033A0000248784410BD0000D2080000CA0800009E
:1033B00021F0004201F00043A2F16052B2F5801FFB
:1033C00028BFD2F17F6C0BD95FEA001C43EAC2022E
:1033D00042EB507018BF704728BF20F001007047C3
:1033E000B2F5801FBCBF184670474FEA410C1CF570
:1033F000001F02D2084600F0BDBB70B500F022FAF3
:1034000000000089FFF7F6BF4FF00040A0F58000F4
:10341000704700002DE9C04130B4DFF8A4C23CEA97
:10342000111418BF3CEA131400F0ED801CEA1114CB
:1034300081EA030544EAD57418BF1CEA131500F0AD
:10344000C880A4EB050404F17F7404F500344FF048
:10345000004545EAC12145EAC32341EA505143EA08
:1034600052534FEAC0204FEAC222994208BF90420D
:1034700000F09D804FEA13650FF24416765D4FEA27
:10348000134506FB05F7C7F1807706FB07F74FEA00
:10349000D737A7FB03687642A7FB06CEC8F580386E
:1034A00038BFA8F1010807FB08E6A6FB028C4FF025
:1034B000000EE6FB03CEDCF1000CCEF1004E38BF6F
:1034C000AEF1010EA6FB0C584FF00007E6FB0E878D
:1034D000A1FB08C6A0FB07CE16EB0E064FF00005B9
:1034E00045F10005E1FB076515F1E04E7EBFA4F54F
:1034F00080345FEA46066D4116F1800745F100050C
:103500004FEA172747EA05674FEA15254FEA06668F
:10351000A6F1DE46B6F1805F20D9384605EBC471CE
:1035200024F0010C01EB0C11BCF1FE6F02D8F0BCD1
:10353000BDE8008124425CBF01F5801E9EEAC47F85
:1035400002D4F0BCBDE80081244200F13980A1F131
:10355000C041F0BCBDE8004100F0C2B94FEAD02044
:1035600040EA41504FEAD1214FEAD22242EA435287
:103570004FEAD323A7FB028607FB036605FB02661F
:103580001EEA0E0F58BFA6EB0056B6EB00564FEAE8
:10359000520E4EEAC37E18EB0E0E56EB530EBCD500
:1035A00018EB02085E417F1C55F10005B5E74FF4AA
:1035B00080154FF000074FF000064FF00008ACE711
:1035C00001F1C04101F000414FF00000F0BCBDE846
:1035D00000810CEA131511EA0C1F00D00CE013EA6D
:1035E0000C1F00F026804FF0000081EA030101F07B
:1035F0000041F0BCBDE80081F0BCBDE8004181EABB
:10360000030100F06DB9F0BCBDE8004170B500F0F9
:1036100019F900BF097EFC3E00F007B84FF000002A
:1036200081EA030101F00041704781EA030100F0E3
:1036300057B9F0BCBDE8004122494FF00000704787
:10364000FFFDFBF9F7F5F4F2F0EEEDEBE9E8E6E467
:10365000E3E1E0DEDDDBDAD8D7D5D4D3D1D0CFCDEE
:10366000CCCBCAC8C7C6C5C4C2C1C0BFBEBDBCBB27
:10367000BAB9B8B7B6B5B4B3B2B1B0AFAEADACAB22
:10368000AAA9A8A8A7A6A5A4A3A3A2A1A09F9F9EFC
:103690009D9C9C9B9A9999989797969595949393AE
:1036A000929191908F8F8E8E8D8C8C8B8B8A898945
:1036B00088888787868585848483838282818180C8
:1036C0000000FF070000F87FB0FA80F310FA03F162
:1036D0000AD0C3F11D0303F580634FEA03524FEA9A
:1036E000415002EBD12170474FF0000070470000BD
:1036F00070B5DFF848C11CEA111E1EBF1CEA131585
:103700009EEA0C0F95EA0C0F00F06F8081EA03042B
:103710004EEAD47EAE4421EA4C1123EA4C1341F424
:10372000801143F48013AEF17F7EA1FB024CA0FB1D
:103730000365361955EB0C05A1FB034C4CF1000356
:10374000A0FB021C16EB0C06654153F10003094275
:1037500018BF46F0010613F4007F0BD14FEA033186
:103760004FEA053041EA155140EA165034036FF034
:1037700003020AE04FEAC3214FEAC52041EA55514E
:1037800040EA5650F4026FF0020202EB2E4201EBC7
:10379000025585EACE710AD05FEA440C18BF24F0C6
:1037A000004450F1000041F1000120EAD47040F2E1
:1037B000FE7C624500D270BDA84214BF4FF0804429
:1037C0004FF04044002E08BF0024BEF1806FA8BF18
:1037D000A1F1C041BDE8704080F2828001F1C0419A
:1037E00001F000414FF0000070470CEA13159EEA0B
:1037F0000C0F18BF95EA0C0F06D081EA030E4FF0AC
:1038000000000EF0004170BD00F01CF88900013E80
:1038100000F007B800F009B84FEA430C5FEA5C5CBF
:1038200008D081EA030100F05BB84FEA410C5FEA7F
:103830005C5CF6D102494FF0000070470000FF07C2
:103840000000F87F0EF1020E2EF0030E5EF8046BFE
:10385000364205D4012A43EB030515F5001F12D8A3
:10386000012841EB010C1CF5001F0CD80ED14FEACA
:10387000D17C0CEB4C0C0CF1020C15F5001F08BFB1
:103880004CEBD37C04E04FF0080C01E04FEAD37C12
:103890000CEB4C0526FA05F606F00706B6F1040C0B
:1038A00006D20EEB860CBDE870404CF0010C604770
:1038B000DFE80CF0090B02024FF00041A1F50021F6
:1038C0004FF0000070BD19461046012851EB01046D
:1038D00018BFD4F5001484BF002001F0004170BD72
:1038E0000808A0F500114FEA3101704743004FEA84
:1038F000D30C4FEA3C0C43401FBF40070CF1605112
:1039000013F0FE4F70471CF0006F03D10CF0004124
:10391000002070470CF0004343EA507040EACC00AE
:1039200010B500F0E1F800BF000000924FEA00017E
:10393000FFF7D6BF4FF00041A1F500214FF0000086
:10394000704710B500F034F80CBF0120002010BD06
:1039500010B500F02DF814BF0120002010BD10B5E7
:1039600000F05AF88CBF0120002010BD10B500F007
:1039700053F82CBF0120002010BD10B500F080F8D6
:1039800094BF0120002010BD10B500F079F834BFBD
:103990000120002010BD401058BFC0F14040491028
:1039A00058BFC1F140418142EFF3008070470000F1
:1039B00050EA010C00F113801CF5000F58BFBCF554
:1039C000000F01D48842704707D710F5000F58BF89
:1039D00011F5000F15D488427047894270471CF5D5
:1039E000000F04D5BCF5000FF7D5814270474FF0AA
:1039F000807C1CEB400F38BF1CEB410F01D2814291
:103A0000704710B500F070F8922449004FF0005054
:103A10004FF08051FFF7BFBF50EA010C00F1138057
:103A20001CF5000F58BFBCF5000F01D48842704749
:103A300007D710F5000F58BF11F5000F15D48842B5
:103A40007047894270471CF5000F04D5BCF5000F84
:103A5000F7D5814270474FF0807C1CEB400F38BF98
:103A60001CEB410F01D28142704710B500F03CF8C9
:103A7000922449004FF080504FF00051FFF78BBF68
:103A800050EA010C00F113801CF5000F58BFBCF583
:103A9000000F01D48842704707D710F5000F58BFB8
:103AA00011F5000F15D488427047894270471CF504
:103AB000000F04D5BCF5000FF7D5814270474FF0D9
:103AC000807C1CEB400F38BF1CEB410F01D28142C0
:103AD000704710B500F008F8922449004FF00050EC
:103AE0004FF08051FFF757BF0EF1020E2EF0030E7C
:103AF0005EF8044B244204D44FEA4102B2F17F4FF6
:103B000011D84FEA4003B3F17F4F0CD80ED14FEAE2
:103B1000D07C0CEB4C0C0CF1020CB2F17F4F08BFC7
:103B20004CEBD17C04E04FF0080C01E04FEAD17C73
:103B30000CEB4C0324FA03F404F00704B4F1040C76
:103B400006D20EEB840CBDE810404CF0010C60472F
:103B5000DFE80CF0070802024FF00040A0F58000FB
:103B600010BD0846420018BFD2F1807288BF00F035
:103B7000004010BDFF2141EAD050C0057047FCF75E
:103B800001BD000002400000000000A00000000095
:103B900005400000000000C8000000000C400000CC
:103BA0000000409C00000000194000000020BCBE46
:103BB0000000000034400000BFC91B8E000000045C
:103BC000B5400000504BCFD06607E2CF01000000A7
:103BD0006C4100003E8251AADFEEA73401000000D4
:103BE000D9420000DCB5A0E23A301F97FFFFFFFF8B
:103BF000B4450000FD25A0C8E9A3C14FFFFFFFFFAA
:103C0000FF3F00000000008000000000FF3F0000B8
:103C10000000008000000000010200000000000021
:103C20000000010203040607080900000000010269
:103C3000030402030405060708090A0B0C0D0E0F06
:103C400010100000803C0008000000201000000060
:103C500050010008903C00081000002060070000A0
:103C6000700100081C00000043000000F8FFFFFF87
:103C70000C0000000E0000000F0000002E000000ED
:103C800001000000100000000024F400010000000A
:04000005080000ED02
:00000001FF
